{
  "_format": "hh-sol-artifact-1",
  "contractName": "CoinflipV2",
  "sourceName": "contracts/Coinflipv2.sol",
  "abi": [
    {
      "anonymous": false,
      "inputs": [
        {
          "indexed": true,
          "internalType": "uint256",
          "name": "gameId",
          "type": "uint256"
        },
        {
          "indexed": true,
          "internalType": "address",
          "name": "player",
          "type": "address"
        }
      ],
      "name": "ChoiceMade",
      "type": "event"
    },
    {
      "anonymous": false,
      "inputs": [
        {
          "indexed": true,
          "internalType": "uint256",
          "name": "gameId",
          "type": "uint256"
        },
        {
          "indexed": true,
          "internalType": "address",
          "name": "player1",
          "type": "address"
        }
      ],
      "name": "GameCreated",
      "type": "event"
    },
    {
      "anonymous": false,
      "inputs": [
        {
          "indexed": true,
          "internalType": "uint256",
          "name": "gameId",
          "type": "uint256"
        },
        {
          "indexed": true,
          "internalType": "address",
          "name": "player2",
          "type": "address"
        }
      ],
      "name": "GameJoined",
      "type": "event"
    },
    {
      "anonymous": false,
      "inputs": [
        {
          "indexed": true,
          "internalType": "uint256",
          "name": "gameId",
          "type": "uint256"
        },
        {
          "indexed": false,
          "internalType": "address",
          "name": "winner",
          "type": "address"
        },
        {
          "indexed": false,
          "internalType": "enum CoinflipV2.Choice",
          "name": "winningChoice",
          "type": "uint8"
        }
      ],
      "name": "GameResolved",
      "type": "event"
    },
    {
      "inputs": [],
      "name": "ENTRY_FEE",
      "outputs": [
        {
          "internalType": "uint256",
          "name": "",
          "type": "uint256"
        }
      ],
      "stateMutability": "view",
      "type": "function"
    },
    {
      "inputs": [],
      "name": "createGame",
      "outputs": [],
      "stateMutability": "payable",
      "type": "function"
    },
    {
      "inputs": [
        {
          "internalType": "uint256",
          "name": "",
          "type": "uint256"
        }
      ],
      "name": "games",
      "outputs": [
        {
          "internalType": "address",
          "name": "player1",
          "type": "address"
        },
        {
          "internalType": "address",
          "name": "player2",
          "type": "address"
        },
        {
          "internalType": "enum CoinflipV2.Choice",
          "name": "player1Choice",
          "type": "uint8"
        },
        {
          "internalType": "enum CoinflipV2.Choice",
          "name": "player2Choice",
          "type": "uint8"
        },
        {
          "internalType": "bool",
          "name": "isFinished",
          "type": "bool"
        }
      ],
      "stateMutability": "view",
      "type": "function"
    },
    {
      "inputs": [],
      "name": "getOpenGames",
      "outputs": [
        {
          "internalType": "uint256[]",
          "name": "",
          "type": "uint256[]"
        }
      ],
      "stateMutability": "view",
      "type": "function"
    },
    {
      "inputs": [
        {
          "internalType": "uint256",
          "name": "gameId",
          "type": "uint256"
        }
      ],
      "name": "joinGame",
      "outputs": [],
      "stateMutability": "payable",
      "type": "function"
    },
    {
      "inputs": [
        {
          "internalType": "uint256",
          "name": "gameId",
          "type": "uint256"
        },
        {
          "internalType": "enum CoinflipV2.Choice",
          "name": "choice",
          "type": "uint8"
        }
      ],
      "name": "makeChoice",
      "outputs": [],
      "stateMutability": "nonpayable",
      "type": "function"
    },
    {
      "inputs": [
        {
          "internalType": "uint256",
          "name": "",
          "type": "uint256"
        }
      ],
      "name": "winner",
      "outputs": [
        {
          "internalType": "address",
          "name": "",
          "type": "address"
        }
      ],
      "stateMutability": "view",
      "type": "function"
    }
  ],
  "bytecode": "0x608060405234801561001057600080fd5b50611ad0806100206000396000f3fe6080604052600436106100705760003560e01c80637255d7291161004e5780637255d7291461011c578063e75d7e3e14610126578063efaa55a014610151578063f6d361cc1461016d57610070565b8063117a5b90146100755780631cbeae5e146100b65780635c3c15f5146100f3575b600080fd5b34801561008157600080fd5b5061009c60048036038101906100979190611184565b610198565b6040516100ad959493929190611284565b60405180910390f35b3480156100c257600080fd5b506100dd60048036038101906100d89190611184565b610245565b6040516100ea91906112d7565b60405180910390f35b3480156100ff57600080fd5b5061011a60048036038101906101159190611317565b610278565b005b6101246106db565b005b34801561013257600080fd5b5061013b610939565b6040516101489190611415565b60405180910390f35b61016b60048036038101906101669190611184565b610b77565b005b34801561017957600080fd5b50610182610d9c565b60405161018f9190611446565b60405180910390f35b600081815481106101a857600080fd5b90600052602060002090600202016000915090508060000160009054906101000a900473ffffffffffffffffffffffffffffffffffffffff16908060010160009054906101000a900473ffffffffffffffffffffffffffffffffffffffff16908060010160149054906101000a900460ff16908060010160159054906101000a900460ff16908060010160169054906101000a900460ff16905085565b60016020528060005260406000206000915054906101000a900473ffffffffffffffffffffffffffffffffffffffff1681565b60008054905082106102bf576040517f08c379a00000000000000000000000000000000000000000000000000000000081526004016102b6906114be565b60405180910390fd5b60008083815481106102d4576102d36114de565b5b906000526020600020906002020190508060010160169054906101000a900460ff1615610336576040517f08c379a000000000000000000000000000000000000000000000000000000000815260040161032d90611559565b60405180910390fd5b6001600281111561034a576103496111f2565b5b82600281111561035d5761035c6111f2565b5b148061038c5750600280811115610377576103766111f2565b5b82600281111561038a576103896111f2565b5b145b6103cb576040517f08c379a00000000000000000000000000000000000000000000000000000000081526004016103c2906115c5565b60405180910390fd5b8060000160009054906101000a900473ffffffffffffffffffffffffffffffffffffffff1673ffffffffffffffffffffffffffffffffffffffff163373ffffffffffffffffffffffffffffffffffffffff16036104cb5760006002811115610436576104356111f2565b5b8160010160149054906101000a900460ff16600281111561045a576104596111f2565b5b1461049a576040517f08c379a000000000000000000000000000000000000000000000000000000000815260040161049190611631565b60405180910390fd5b818160010160146101000a81548160ff021916908360028111156104c1576104c06111f2565b5b0217905550610607565b8060010160009054906101000a900473ffffffffffffffffffffffffffffffffffffffff1673ffffffffffffffffffffffffffffffffffffffff163373ffffffffffffffffffffffffffffffffffffffff16036105cb5760006002811115610536576105356111f2565b5b8160010160159054906101000a900460ff16600281111561055a576105596111f2565b5b1461059a576040517f08c379a000000000000000000000000000000000000000000000000000000000815260040161059190611631565b60405180910390fd5b818160010160156101000a81548160ff021916908360028111156105c1576105c06111f2565b5b0217905550610606565b6040517f08c379a00000000000000000000000000000000000000000000000000000000081526004016105fd9061169d565b60405180910390fd5b5b3373ffffffffffffffffffffffffffffffffffffffff16837f4251675a150e11c7c3a839acb45140cd912deb4723fc33e1481fe8d707ccd38460405160405180910390a36000600281111561065f5761065e6111f2565b5b8160010160149054906101000a900460ff166002811115610683576106826111f2565b5b141580156106c75750600060028111156106a05761069f6111f2565b5b8160010160159054906101000a900460ff1660028111156106c4576106c36111f2565b5b14155b156106d6576106d583610da7565b5b505050565b662386f26fc100003414610724576040517f08c379a000000000000000000000000000000000000000000000000000000000815260040161071b90611709565b60405180910390fd5b60006040518060a001604052803373ffffffffffffffffffffffffffffffffffffffff168152602001600073ffffffffffffffffffffffffffffffffffffffff1681526020016000600281111561077e5761077d6111f2565b5b815260200160006002811115610797576107966111f2565b5b8152602001600015158152509050600081908060018154018082558091505060019003906000526020600020906002020160009091909190915060008201518160000160006101000a81548173ffffffffffffffffffffffffffffffffffffffff021916908373ffffffffffffffffffffffffffffffffffffffff16021790555060208201518160010160006101000a81548173ffffffffffffffffffffffffffffffffffffffff021916908373ffffffffffffffffffffffffffffffffffffffff16021790555060408201518160010160146101000a81548160ff0219169083600281111561088a576108896111f2565b5b021790555060608201518160010160156101000a81548160ff021916908360028111156108ba576108b96111f2565b5b021790555060808201518160010160166101000a81548160ff02191690831515021790555050503373ffffffffffffffffffffffffffffffffffffffff16600160008054905061090a9190611758565b7fc3e0f84839dc888c892a013d10c8f9d6dc05a21a879d0ce468ca558013e9121c60405160405180910390a350565b60606000805b600080549050811015610a1e57600081815481106109605761095f6114de565b5b906000526020600020906002020160010160169054906101000a900460ff161580156109fd5750600073ffffffffffffffffffffffffffffffffffffffff16600082815481106109b3576109b26114de565b5b906000526020600020906002020160010160009054906101000a900473ffffffffffffffffffffffffffffffffffffffff1673ffffffffffffffffffffffffffffffffffffffff16145b15610a11578180610a0d9061178c565b9250505b808060010191505061093f565b5060008167ffffffffffffffff811115610a3b57610a3a6117d4565b5b604051908082528060200260200182016040528015610a695781602001602082028036833780820191505090505b5090506000805b600080549050811015610b6d5760008181548110610a9157610a906114de565b5b906000526020600020906002020160010160169054906101000a900460ff16158015610b2e5750600073ffffffffffffffffffffffffffffffffffffffff1660008281548110610ae457610ae36114de565b5b906000526020600020906002020160010160009054906101000a900473ffffffffffffffffffffffffffffffffffffffff1673ffffffffffffffffffffffffffffffffffffffff16145b15610b605780838380610b409061178c565b945081518110610b5357610b526114de565b5b6020026020010181815250505b8080600101915050610a70565b5081935050505090565b6000805490508110610bbe576040517f08c379a0000000000000000000000000000000000000000000000000000000008152600401610bb5906114be565b60405180910390fd5b6000808281548110610bd357610bd26114de565b5b90600052602060002090600202019050662386f26fc100003414610c2c576040517f08c379a0000000000000000000000000000000000000000000000000000000008152600401610c2390611709565b60405180910390fd5b600073ffffffffffffffffffffffffffffffffffffffff168160010160009054906101000a900473ffffffffffffffffffffffffffffffffffffffff1673ffffffffffffffffffffffffffffffffffffffff1614610cbf576040517f08c379a0000000000000000000000000000000000000000000000000000000008152600401610cb69061184f565b60405180910390fd5b8060010160169054906101000a900460ff1615610d11576040517f08c379a0000000000000000000000000000000000000000000000000000000008152600401610d08906118bb565b60405180910390fd5b338160010160006101000a81548173ffffffffffffffffffffffffffffffffffffffff021916908373ffffffffffffffffffffffffffffffffffffffff1602179055503373ffffffffffffffffffffffffffffffffffffffff16827f45c4f9cbafe186141862608c493f28b823fde4c2142bedc3f5169961a73fdd2260405160405180910390a35050565b662386f26fc1000081565b6000808281548110610dbc57610dbb6114de565b5b906000526020600020906002020190508060010160169054906101000a900460ff1615610e1e576040517f08c379a0000000000000000000000000000000000000000000000000000000008152600401610e1590611927565b60405180910390fd5b6000808260010160159054906101000a900460ff166002811115610e4557610e446111f2565b5b8360010160149054906101000a900460ff166002811115610e6957610e686111f2565b5b03610fa3578260000160009054906101000a900473ffffffffffffffffffffffffffffffffffffffff1673ffffffffffffffffffffffffffffffffffffffff166108fc662386f26fc100009081150290604051600060405180830381858888f19350505050158015610edf573d6000803e3d6000fd5b508260010160009054906101000a900473ffffffffffffffffffffffffffffffffffffffff1673ffffffffffffffffffffffffffffffffffffffff166108fc662386f26fc100009081150290604051600060405180830381858888f19350505050158015610f51573d6000803e3d6000fd5b50837fc36da9c79e28cf65cd30da10889d67d6ee0666e56935a8f933aebe70d5506ae160008560010160149054906101000a900460ff16604051610f96929190611947565b60405180910390a2611126565b600080600242610fb3919061199f565b14905080610fe5578360010160009054906101000a900473ffffffffffffffffffffffffffffffffffffffff1661100b565b8360000160009054906101000a900473ffffffffffffffffffffffffffffffffffffffff165b925080611029578360010160159054906101000a900460ff1661103c565b8360010160149054906101000a900460ff165b9150826001600087815260200190815260200160002060006101000a81548173ffffffffffffffffffffffffffffffffffffffff021916908373ffffffffffffffffffffffffffffffffffffffff1602179055508273ffffffffffffffffffffffffffffffffffffffff166108fc6002662386f26fc100006110be91906119d0565b9081150290604051600060405180830381858888f193505050501580156110e9573d6000803e3d6000fd5b50847fc36da9c79e28cf65cd30da10889d67d6ee0666e56935a8f933aebe70d5506ae1848460405161111c929190611a71565b60405180910390a2505b60018360010160166101000a81548160ff02191690831515021790555050505050565b600080fd5b6000819050919050565b6111618161114e565b811461116c57600080fd5b50565b60008135905061117e81611158565b92915050565b60006020828403121561119a57611199611149565b5b60006111a88482850161116f565b91505092915050565b600073ffffffffffffffffffffffffffffffffffffffff82169050919050565b60006111dc826111b1565b9050919050565b6111ec816111d1565b82525050565b7f4e487b7100000000000000000000000000000000000000000000000000000000600052602160045260246000fd5b60038110611232576112316111f2565b5b50565b600081905061124382611221565b919050565b600061125382611235565b9050919050565b61126381611248565b82525050565b60008115159050919050565b61127e81611269565b82525050565b600060a08201905061129960008301886111e3565b6112a660208301876111e3565b6112b3604083018661125a565b6112c0606083018561125a565b6112cd6080830184611275565b9695505050505050565b60006020820190506112ec60008301846111e3565b92915050565b600381106112ff57600080fd5b50565b600081359050611311816112f2565b92915050565b6000806040838503121561132e5761132d611149565b5b600061133c8582860161116f565b925050602061134d85828601611302565b9150509250929050565b600081519050919050565b600082825260208201905092915050565b6000819050602082019050919050565b61138c8161114e565b82525050565b600061139e8383611383565b60208301905092915050565b6000602082019050919050565b60006113c282611357565b6113cc8185611362565b93506113d783611373565b8060005b838110156114085781516113ef8882611392565b97506113fa836113aa565b9250506001810190506113db565b5085935050505092915050565b6000602082019050818103600083015261142f81846113b7565b905092915050565b6114408161114e565b82525050565b600060208201905061145b6000830184611437565b92915050565b600082825260208201905092915050565b7f496e76616c69642067616d654964000000000000000000000000000000000000600082015250565b60006114a8600e83611461565b91506114b382611472565b602082019050919050565b600060208201905081810360008301526114d78161149b565b9050919050565b7f4e487b7100000000000000000000000000000000000000000000000000000000600052603260045260246000fd5b7f47616d6520616c72656164792066696e69736865640000000000000000000000600082015250565b6000611543601583611461565b915061154e8261150d565b602082019050919050565b6000602082019050818103600083015261157281611536565b9050919050565b7f496e76616c69642063686f696365000000000000000000000000000000000000600082015250565b60006115af600e83611461565b91506115ba82611579565b602082019050919050565b600060208201905081810360008301526115de816115a2565b9050919050565b7f416c72656164792063686f736500000000000000000000000000000000000000600082015250565b600061161b600d83611461565b9150611626826115e5565b602082019050919050565b6000602082019050818103600083015261164a8161160e565b9050919050565b7f4e6f74206120706c6179657220696e20746869732067616d6500000000000000600082015250565b6000611687601983611461565b915061169282611651565b602082019050919050565b600060208201905081810360008301526116b68161167a565b9050919050565b7f4d7573742073656e6420302e3031204d4f4e0000000000000000000000000000600082015250565b60006116f3601283611461565b91506116fe826116bd565b602082019050919050565b60006020820190508181036000830152611722816116e6565b9050919050565b7f4e487b7100000000000000000000000000000000000000000000000000000000600052601160045260246000fd5b60006117638261114e565b915061176e8361114e565b925082820390508181111561178657611785611729565b5b92915050565b60006117978261114e565b91507fffffffffffffffffffffffffffffffffffffffffffffffffffffffffffffffff82036117c9576117c8611729565b5b600182019050919050565b7f4e487b7100000000000000000000000000000000000000000000000000000000600052604160045260246000fd5b7f416c7265616479206a6f696e6564000000000000000000000000000000000000600082015250565b6000611839600e83611461565b915061184482611803565b602082019050919050565b600060208201905081810360008301526118688161182c565b9050919050565b7f47616d652066696e697368656400000000000000000000000000000000000000600082015250565b60006118a5600d83611461565b91506118b08261186f565b602082019050919050565b600060208201905081810360008301526118d481611898565b9050919050565b7f416c7265616479207265736f6c76656400000000000000000000000000000000600082015250565b6000611911601083611461565b915061191c826118db565b602082019050919050565b6000602082019050818103600083015261194081611904565b9050919050565b600060408201905061195c60008301856111e3565b611969602083018461125a565b9392505050565b7f4e487b7100000000000000000000000000000000000000000000000000000000600052601260045260246000fd5b60006119aa8261114e565b91506119b58361114e565b9250826119c5576119c4611970565b5b828206905092915050565b60006119db8261114e565b91506119e68361114e565b92508282026119f48161114e565b91508282048414831517611a0b57611a0a611729565b5b5092915050565b6000819050919050565b6000611a37611a32611a2d846111b1565b611a12565b6111b1565b9050919050565b6000611a4982611a1c565b9050919050565b6000611a5b82611a3e565b9050919050565b611a6b81611a50565b82525050565b6000604082019050611a866000830185611a62565b611a93602083018461125a565b939250505056fea26469706673582212208180da6b70bb4bfe65facc58a4ea6068f0778fb349ad3d5269209e551941289d64736f6c63430008180033",
  "linkReferences": {},
  "deployedLinkReferences": {}
}