{
  "_format": "hh-sol-artifact-1",
  "contractName": "Coinflip",
  "sourceName": "contracts/Coinflip.sol",
  "abi": [
    {
      "anonymous": false,
      "inputs": [
        {
          "indexed": true,
          "internalType": "uint256",
          "name": "gameId",
          "type": "uint256"
        },
        {
          "indexed": true,
          "internalType": "address",
          "name": "player1",
          "type": "address"
        }
      ],
      "name": "GameCreated",
      "type": "event"
    },
    {
      "anonymous": false,
      "inputs": [
        {
          "indexed": true,
          "internalType": "uint256",
          "name": "gameId",
          "type": "uint256"
        },
        {
          "indexed": true,
          "internalType": "address",
          "name": "winner",
          "type": "address"
        },
        {
          "indexed": false,
          "internalType": "enum Coinflip.Choice",
          "name": "winningChoice",
          "type": "uint8"
        }
      ],
      "name": "GameFinished",
      "type": "event"
    },
    {
      "anonymous": false,
      "inputs": [
        {
          "indexed": true,
          "internalType": "uint256",
          "name": "gameId",
          "type": "uint256"
        },
        {
          "indexed": true,
          "internalType": "address",
          "name": "player2",
          "type": "address"
        }
      ],
      "name": "GameJoined",
      "type": "event"
    },
    {
      "inputs": [],
      "name": "BET_AMOUNT",
      "outputs": [
        {
          "internalType": "uint256",
          "name": "",
          "type": "uint256"
        }
      ],
      "stateMutability": "view",
      "type": "function"
    },
    {
      "inputs": [],
      "name": "createGame",
      "outputs": [],
      "stateMutability": "payable",
      "type": "function"
    },
    {
      "inputs": [],
      "name": "gameIdCounter",
      "outputs": [
        {
          "internalType": "uint256",
          "name": "",
          "type": "uint256"
        }
      ],
      "stateMutability": "view",
      "type": "function"
    },
    {
      "inputs": [
        {
          "internalType": "uint256",
          "name": "",
          "type": "uint256"
        }
      ],
      "name": "games",
      "outputs": [
        {
          "internalType": "address",
          "name": "player1",
          "type": "address"
        },
        {
          "internalType": "address",
          "name": "player2",
          "type": "address"
        },
        {
          "internalType": "uint256",
          "name": "betAmount",
          "type": "uint256"
        },
        {
          "internalType": "enum Coinflip.Choice",
          "name": "winner",
          "type": "uint8"
        },
        {
          "internalType": "enum Coinflip.GameState",
          "name": "state",
          "type": "uint8"
        }
      ],
      "stateMutability": "view",
      "type": "function"
    },
    {
      "inputs": [
        {
          "internalType": "uint256",
          "name": "_gameId",
          "type": "uint256"
        }
      ],
      "name": "joinGame",
      "outputs": [],
      "stateMutability": "payable",
      "type": "function"
    }
  ],
  "bytecode": "0x608060405234801561001057600080fd5b50610e23806100206000396000f3fe60806040526004361061004a5760003560e01c8063117a5b901461004f5780631bb412d6146100905780633f9326af146100bb5780637255d729146100e6578063efaa55a0146100f0575b600080fd5b34801561005b57600080fd5b5061007660048036038101906100719190610873565b61010c565b6040516100879594939291906109af565b60405180910390f35b34801561009c57600080fd5b506100a561019c565b6040516100b29190610a02565b60405180910390f35b3480156100c757600080fd5b506100d06101a2565b6040516100dd9190610a02565b60405180910390f35b6100ee6101ad565b005b61010a60048036038101906101059190610873565b6103e3565b005b60006020528060005260406000206000915090508060000160009054906101000a900473ffffffffffffffffffffffffffffffffffffffff16908060010160009054906101000a900473ffffffffffffffffffffffffffffffffffffffff16908060020154908060030160009054906101000a900460ff16908060030160019054906101000a900460ff16905085565b60015481565b662386f26fc1000081565b662386f26fc1000034146101f6576040517f08c379a00000000000000000000000000000000000000000000000000000000081526004016101ed90610a7a565b60405180910390fd5b600060015490506040518060a001604052803373ffffffffffffffffffffffffffffffffffffffff168152602001600073ffffffffffffffffffffffffffffffffffffffff1681526020013481526020016000600281111561025b5761025a6108f0565b5b815260200160006002811115610274576102736108f0565b5b81525060008083815260200190815260200160002060008201518160000160006101000a81548173ffffffffffffffffffffffffffffffffffffffff021916908373ffffffffffffffffffffffffffffffffffffffff16021790555060208201518160010160006101000a81548173ffffffffffffffffffffffffffffffffffffffff021916908373ffffffffffffffffffffffffffffffffffffffff1602179055506040820151816002015560608201518160030160006101000a81548160ff0219169083600281111561034c5761034b6108f0565b5b021790555060808201518160030160016101000a81548160ff0219169083600281111561037c5761037b6108f0565b5b02179055509050503373ffffffffffffffffffffffffffffffffffffffff16817fc3e0f84839dc888c892a013d10c8f9d6dc05a21a879d0ce468ca558013e9121c60405160405180910390a3600160008154809291906103db90610ac9565b919050555050565b662386f26fc10000341461042c576040517f08c379a000000000000000000000000000000000000000000000000000000000815260040161042390610a7a565b60405180910390fd5b6000806000838152602001908152602001600020905060006002811115610456576104556108f0565b5b8160030160019054906101000a900460ff16600281111561047a576104796108f0565b5b146104ba576040517f08c379a00000000000000000000000000000000000000000000000000000000081526004016104b190610b5d565b60405180910390fd5b3373ffffffffffffffffffffffffffffffffffffffff168160000160009054906101000a900473ffffffffffffffffffffffffffffffffffffffff1673ffffffffffffffffffffffffffffffffffffffff160361054c576040517f08c379a000000000000000000000000000000000000000000000000000000000815260040161054390610bc9565b60405180910390fd5b338160010160006101000a81548173ffffffffffffffffffffffffffffffffffffffff021916908373ffffffffffffffffffffffffffffffffffffffff16021790555060018160030160016101000a81548160ff021916908360028111156105b7576105b66108f0565b5b02179055503373ffffffffffffffffffffffffffffffffffffffff16827f45c4f9cbafe186141862608c493f28b823fde4c2142bedc3f5169961a73fdd2260405160405180910390a36106098261060d565b5050565b6000806000838152602001908152602001600020905060006002423360405160200161063a929190610c52565b6040516020818303038152906040528051906020012060001c61065d9190610cad565b90506000806000830361069a57600190508360000160009054906101000a900473ffffffffffffffffffffffffffffffffffffffff1691506106c6565b600290508360010160009054906101000a900473ffffffffffffffffffffffffffffffffffffffff1691505b6000600285600201546106d99190610cde565b905060008373ffffffffffffffffffffffffffffffffffffffff168260405161070190610d51565b60006040518083038185875af1925050503d806000811461073e576040519150601f19603f3d011682016040523d82523d6000602084013e610743565b606091505b5050905080610787576040517f08c379a000000000000000000000000000000000000000000000000000000000815260040161077e90610db2565b60405180910390fd5b828660030160006101000a81548160ff021916908360028111156107ae576107ad6108f0565b5b021790555060028660030160016101000a81548160ff021916908360028111156107db576107da6108f0565b5b02179055508373ffffffffffffffffffffffffffffffffffffffff16877f1f4228e2d0d405e34ac2a1c4b6f47f3ccdaf187bc2d09d151654d399be40d4ad856040516108279190610dd2565b60405180910390a350505050505050565b600080fd5b6000819050919050565b6108508161083d565b811461085b57600080fd5b50565b60008135905061086d81610847565b92915050565b60006020828403121561088957610888610838565b5b60006108978482850161085e565b91505092915050565b600073ffffffffffffffffffffffffffffffffffffffff82169050919050565b60006108cb826108a0565b9050919050565b6108db816108c0565b82525050565b6108ea8161083d565b82525050565b7f4e487b7100000000000000000000000000000000000000000000000000000000600052602160045260246000fd5b600381106109305761092f6108f0565b5b50565b60008190506109418261091f565b919050565b600061095182610933565b9050919050565b61096181610946565b82525050565b60038110610978576109776108f0565b5b50565b600081905061098982610967565b919050565b60006109998261097b565b9050919050565b6109a98161098e565b82525050565b600060a0820190506109c460008301886108d2565b6109d160208301876108d2565b6109de60408301866108e1565b6109eb6060830185610958565b6109f860808301846109a0565b9695505050505050565b6000602082019050610a1760008301846108e1565b92915050565b600082825260208201905092915050565b7f496e636f72726563742062657420616d6f756e74000000000000000000000000600082015250565b6000610a64601483610a1d565b9150610a6f82610a2e565b602082019050919050565b60006020820190508181036000830152610a9381610a57565b9050919050565b7f4e487b7100000000000000000000000000000000000000000000000000000000600052601160045260246000fd5b6000610ad48261083d565b91507fffffffffffffffffffffffffffffffffffffffffffffffffffffffffffffffff8203610b0657610b05610a9a565b5b600182019050919050565b7f47616d65206973206e6f742077616974696e6720666f72206120706c61796572600082015250565b6000610b47602083610a1d565b9150610b5282610b11565b602082019050919050565b60006020820190508181036000830152610b7681610b3a565b9050919050565b7f596f752063616e6e6f7420706c617920616761696e737420796f757273656c66600082015250565b6000610bb3602083610a1d565b9150610bbe82610b7d565b602082019050919050565b60006020820190508181036000830152610be281610ba6565b9050919050565b6000819050919050565b610c04610bff8261083d565b610be9565b82525050565b60008160601b9050919050565b6000610c2282610c0a565b9050919050565b6000610c3482610c17565b9050919050565b610c4c610c47826108c0565b610c29565b82525050565b6000610c5e8285610bf3565b602082019150610c6e8284610c3b565b6014820191508190509392505050565b7f4e487b7100000000000000000000000000000000000000000000000000000000600052601260045260246000fd5b6000610cb88261083d565b9150610cc38361083d565b925082610cd357610cd2610c7e565b5b828206905092915050565b6000610ce98261083d565b9150610cf48361083d565b9250828202610d028161083d565b91508282048414831517610d1957610d18610a9a565b5b5092915050565b600081905092915050565b50565b6000610d3b600083610d20565b9150610d4682610d2b565b600082019050919050565b6000610d5c82610d2e565b9150819050919050565b7f4661696c656420746f2073656e64207072697a65000000000000000000000000600082015250565b6000610d9c601483610a1d565b9150610da782610d66565b602082019050919050565b60006020820190508181036000830152610dcb81610d8f565b9050919050565b6000602082019050610de76000830184610958565b9291505056fea26469706673582212205df9d27bad53b7c7330e5373fb365bf5e7c28b1d54b67d1ecbba288e0c10edc464736f6c63430008180033",
  "linkReferences": {},
  "deployedLinkReferences": {}
}